{
  "contractName": "FbPumpkinsGift",
  "abi": [
    {
      "inputs": [
        {
          "internalType": "string",
          "name": "name",
          "type": "string"
        },
        {
          "internalType": "string",
          "name": "symbol",
          "type": "string"
        },
        {
          "internalType": "uint256",
          "name": "saleStart",
          "type": "uint256"
        },
        {
          "internalType": "address",
          "name": "dependentContractAddress",
          "type": "address"
        }
      ],
      "stateMutability": "nonpayable",
      "type": "constructor"
    },
    {
      "anonymous": false,
      "inputs": [
        {
          "indexed": true,
          "internalType": "address",
          "name": "owner",
          "type": "address"
        },
        {
          "indexed": true,
          "internalType": "address",
          "name": "approved",
          "type": "address"
        },
        {
          "indexed": true,
          "internalType": "uint256",
          "name": "tokenId",
          "type": "uint256"
        }
      ],
      "name": "Approval",
      "type": "event"
    },
    {
      "anonymous": false,
      "inputs": [
        {
          "indexed": true,
          "internalType": "address",
          "name": "owner",
          "type": "address"
        },
        {
          "indexed": true,
          "internalType": "address",
          "name": "operator",
          "type": "address"
        },
        {
          "indexed": false,
          "internalType": "bool",
          "name": "approved",
          "type": "bool"
        }
      ],
      "name": "ApprovalForAll",
      "type": "event"
    },
    {
      "anonymous": false,
      "inputs": [
        {
          "indexed": true,
          "internalType": "address",
          "name": "previousOwner",
          "type": "address"
        },
        {
          "indexed": true,
          "internalType": "address",
          "name": "newOwner",
          "type": "address"
        }
      ],
      "name": "OwnershipTransferred",
      "type": "event"
    },
    {
      "anonymous": false,
      "inputs": [
        {
          "indexed": true,
          "internalType": "address",
          "name": "from",
          "type": "address"
        },
        {
          "indexed": true,
          "internalType": "address",
          "name": "to",
          "type": "address"
        },
        {
          "indexed": true,
          "internalType": "uint256",
          "name": "tokenId",
          "type": "uint256"
        }
      ],
      "name": "Transfer",
      "type": "event"
    },
    {
      "inputs": [
        {
          "internalType": "address",
          "name": "to",
          "type": "address"
        },
        {
          "internalType": "uint256",
          "name": "tokenId",
          "type": "uint256"
        }
      ],
      "name": "approve",
      "outputs": [],
      "stateMutability": "nonpayable",
      "type": "function"
    },
    {
      "inputs": [
        {
          "internalType": "address",
          "name": "owner",
          "type": "address"
        }
      ],
      "name": "balanceOf",
      "outputs": [
        {
          "internalType": "uint256",
          "name": "",
          "type": "uint256"
        }
      ],
      "stateMutability": "view",
      "type": "function"
    },
    {
      "inputs": [],
      "name": "collectionStartingIndex",
      "outputs": [
        {
          "internalType": "uint256",
          "name": "",
          "type": "uint256"
        }
      ],
      "stateMutability": "view",
      "type": "function"
    },
    {
      "inputs": [],
      "name": "collectionStartingIndexBlock",
      "outputs": [
        {
          "internalType": "uint256",
          "name": "",
          "type": "uint256"
        }
      ],
      "stateMutability": "view",
      "type": "function"
    },
    {
      "inputs": [
        {
          "internalType": "uint256",
          "name": "tokenId",
          "type": "uint256"
        }
      ],
      "name": "getApproved",
      "outputs": [
        {
          "internalType": "address",
          "name": "",
          "type": "address"
        }
      ],
      "stateMutability": "view",
      "type": "function"
    },
    {
      "inputs": [],
      "name": "giftProvenanceHash",
      "outputs": [
        {
          "internalType": "string",
          "name": "",
          "type": "string"
        }
      ],
      "stateMutability": "view",
      "type": "function"
    },
    {
      "inputs": [
        {
          "internalType": "address",
          "name": "owner",
          "type": "address"
        },
        {
          "internalType": "address",
          "name": "operator",
          "type": "address"
        }
      ],
      "name": "isApprovedForAll",
      "outputs": [
        {
          "internalType": "bool",
          "name": "",
          "type": "bool"
        }
      ],
      "stateMutability": "view",
      "type": "function"
    },
    {
      "inputs": [],
      "name": "maxGifts",
      "outputs": [
        {
          "internalType": "uint256",
          "name": "",
          "type": "uint256"
        }
      ],
      "stateMutability": "view",
      "type": "function"
    },
    {
      "inputs": [],
      "name": "mintedGifts",
      "outputs": [
        {
          "internalType": "uint256",
          "name": "",
          "type": "uint256"
        }
      ],
      "stateMutability": "view",
      "type": "function"
    },
    {
      "inputs": [],
      "name": "name",
      "outputs": [
        {
          "internalType": "string",
          "name": "",
          "type": "string"
        }
      ],
      "stateMutability": "view",
      "type": "function"
    },
    {
      "inputs": [],
      "name": "owner",
      "outputs": [
        {
          "internalType": "address",
          "name": "",
          "type": "address"
        }
      ],
      "stateMutability": "view",
      "type": "function"
    },
    {
      "inputs": [
        {
          "internalType": "uint256",
          "name": "tokenId",
          "type": "uint256"
        }
      ],
      "name": "ownerOf",
      "outputs": [
        {
          "internalType": "address",
          "name": "",
          "type": "address"
        }
      ],
      "stateMutability": "view",
      "type": "function"
    },
    {
      "inputs": [],
      "name": "renounceOwnership",
      "outputs": [],
      "stateMutability": "nonpayable",
      "type": "function"
    },
    {
      "inputs": [],
      "name": "revealTimestamp",
      "outputs": [
        {
          "internalType": "uint256",
          "name": "",
          "type": "uint256"
        }
      ],
      "stateMutability": "view",
      "type": "function"
    },
    {
      "inputs": [
        {
          "internalType": "address",
          "name": "from",
          "type": "address"
        },
        {
          "internalType": "address",
          "name": "to",
          "type": "address"
        },
        {
          "internalType": "uint256",
          "name": "tokenId",
          "type": "uint256"
        }
      ],
      "name": "safeTransferFrom",
      "outputs": [],
      "stateMutability": "nonpayable",
      "type": "function"
    },
    {
      "inputs": [
        {
          "internalType": "address",
          "name": "from",
          "type": "address"
        },
        {
          "internalType": "address",
          "name": "to",
          "type": "address"
        },
        {
          "internalType": "uint256",
          "name": "tokenId",
          "type": "uint256"
        },
        {
          "internalType": "bytes",
          "name": "_data",
          "type": "bytes"
        }
      ],
      "name": "safeTransferFrom",
      "outputs": [],
      "stateMutability": "nonpayable",
      "type": "function"
    },
    {
      "inputs": [],
      "name": "saleIsActive",
      "outputs": [
        {
          "internalType": "bool",
          "name": "",
          "type": "bool"
        }
      ],
      "stateMutability": "view",
      "type": "function"
    },
    {
      "inputs": [
        {
          "internalType": "address",
          "name": "operator",
          "type": "address"
        },
        {
          "internalType": "bool",
          "name": "approved",
          "type": "bool"
        }
      ],
      "name": "setApprovalForAll",
      "outputs": [],
      "stateMutability": "nonpayable",
      "type": "function"
    },
    {
      "inputs": [],
      "name": "setBlockTimestamp",
      "outputs": [
        {
          "internalType": "uint256",
          "name": "",
          "type": "uint256"
        }
      ],
      "stateMutability": "view",
      "type": "function"
    },
    {
      "inputs": [
        {
          "internalType": "bytes4",
          "name": "interfaceId",
          "type": "bytes4"
        }
      ],
      "name": "supportsInterface",
      "outputs": [
        {
          "internalType": "bool",
          "name": "",
          "type": "bool"
        }
      ],
      "stateMutability": "view",
      "type": "function"
    },
    {
      "inputs": [],
      "name": "symbol",
      "outputs": [
        {
          "internalType": "string",
          "name": "",
          "type": "string"
        }
      ],
      "stateMutability": "view",
      "type": "function"
    },
    {
      "inputs": [
        {
          "internalType": "uint256",
          "name": "index",
          "type": "uint256"
        }
      ],
      "name": "tokenByIndex",
      "outputs": [
        {
          "internalType": "uint256",
          "name": "",
          "type": "uint256"
        }
      ],
      "stateMutability": "view",
      "type": "function"
    },
    {
      "inputs": [
        {
          "internalType": "address",
          "name": "owner",
          "type": "address"
        },
        {
          "internalType": "uint256",
          "name": "index",
          "type": "uint256"
        }
      ],
      "name": "tokenOfOwnerByIndex",
      "outputs": [
        {
          "internalType": "uint256",
          "name": "",
          "type": "uint256"
        }
      ],
      "stateMutability": "view",
      "type": "function"
    },
    {
      "inputs": [
        {
          "internalType": "uint256",
          "name": "tokenId",
          "type": "uint256"
        }
      ],
      "name": "tokenURI",
      "outputs": [
        {
          "internalType": "string",
          "name": "",
          "type": "string"
        }
      ],
      "stateMutability": "view",
      "type": "function"
    },
    {
      "inputs": [],
      "name": "totalSupply",
      "outputs": [
        {
          "internalType": "uint256",
          "name": "",
          "type": "uint256"
        }
      ],
      "stateMutability": "view",
      "type": "function"
    },
    {
      "inputs": [
        {
          "internalType": "address",
          "name": "from",
          "type": "address"
        },
        {
          "internalType": "address",
          "name": "to",
          "type": "address"
        },
        {
          "internalType": "uint256",
          "name": "tokenId",
          "type": "uint256"
        }
      ],
      "name": "transferFrom",
      "outputs": [],
      "stateMutability": "nonpayable",
      "type": "function"
    },
    {
      "inputs": [
        {
          "internalType": "address",
          "name": "newOwner",
          "type": "address"
        }
      ],
      "name": "transferOwnership",
      "outputs": [],
      "stateMutability": "nonpayable",
      "type": "function"
    },
    {
      "inputs": [
        {
          "internalType": "uint256",
          "name": "revealTimeStamp",
          "type": "uint256"
        }
      ],
      "name": "setRevealTimestamp",
      "outputs": [],
      "stateMutability": "nonpayable",
      "type": "function"
    },
    {
      "inputs": [
        {
          "internalType": "uint256",
          "name": "startingBlockTimestamp",
          "type": "uint256"
        }
      ],
      "name": "setStartingBlockTimestamp",
      "outputs": [],
      "stateMutability": "nonpayable",
      "type": "function"
    },
    {
      "inputs": [
        {
          "internalType": "string",
          "name": "provenanceHash",
          "type": "string"
        }
      ],
      "name": "setProvenanceHash",
      "outputs": [],
      "stateMutability": "nonpayable",
      "type": "function"
    },
    {
      "inputs": [
        {
          "internalType": "uint256",
          "name": "tokenId",
          "type": "uint256"
        }
      ],
      "name": "isMinted",
      "outputs": [
        {
          "internalType": "bool",
          "name": "",
          "type": "bool"
        }
      ],
      "stateMutability": "view",
      "type": "function"
    },
    {
      "inputs": [
        {
          "internalType": "string",
          "name": "uri",
          "type": "string"
        }
      ],
      "name": "setBaseURI",
      "outputs": [],
      "stateMutability": "nonpayable",
      "type": "function"
    },
    {
      "inputs": [
        {
          "internalType": "uint256",
          "name": "giftIndex",
          "type": "uint256"
        },
        {
          "internalType": "address",
          "name": "giftReceiver",
          "type": "address"
        }
      ],
      "name": "mintGift",
      "outputs": [],
      "stateMutability": "nonpayable",
      "type": "function"
    },
    {
      "inputs": [],
      "name": "setStartingIndex",
      "outputs": [],
      "stateMutability": "nonpayable",
      "type": "function"
    }
  ],
  "bytecode": "0x60806040526000600e60006101000a81548160ff02191690831515021790555061138860115560006012553480156200003757600080fd5b50604051620048f9380380620048f983398181016040528101906200005d91906200034a565b8383816000908051906020019062000077929190620001fa565b50806001908051906020019062000090929190620001fa565b505050620000b3620000a76200012c60201b60201c565b6200013460201b60201c565b62093a8082620000c4919062000447565b6014819055506207e90082620000db919062000447565b60138190555080600b60006101000a81548173ffffffffffffffffffffffffffffffffffffffff021916908373ffffffffffffffffffffffffffffffffffffffff1602179055505050505062000656565b600033905090565b6000600a60009054906101000a900473ffffffffffffffffffffffffffffffffffffffff16905081600a60006101000a81548173ffffffffffffffffffffffffffffffffffffffff021916908373ffffffffffffffffffffffffffffffffffffffff1602179055508173ffffffffffffffffffffffffffffffffffffffff168173ffffffffffffffffffffffffffffffffffffffff167f8be0079c531659141344cd1fd0a4f28419497f9722a3daafe3b4186f6b6457e060405160405180910390a35050565b828054620002089062000518565b90600052602060002090601f0160209004810192826200022c576000855562000278565b82601f106200024757805160ff191683800117855562000278565b8280016001018555821562000278579182015b82811115620002775782518255916020019190600101906200025a565b5b5090506200028791906200028b565b5090565b5b80821115620002a65760008160009055506001016200028c565b5090565b6000620002c1620002bb8462000411565b620003e8565b905082815260208101848484011115620002da57600080fd5b620002e7848285620004e2565b509392505050565b600081519050620003008162000622565b92915050565b600082601f8301126200031857600080fd5b81516200032a848260208601620002aa565b91505092915050565b60008151905062000344816200063c565b92915050565b600080600080608085870312156200036157600080fd5b600085015167ffffffffffffffff8111156200037c57600080fd5b6200038a8782880162000306565b945050602085015167ffffffffffffffff811115620003a857600080fd5b620003b68782880162000306565b9350506040620003c98782880162000333565b9250506060620003dc87828801620002ef565b91505092959194509250565b6000620003f462000407565b90506200040282826200054e565b919050565b6000604051905090565b600067ffffffffffffffff8211156200042f576200042e620005e2565b5b6200043a8262000611565b9050602081019050919050565b60006200045482620004d8565b91506200046183620004d8565b9250827fffffffffffffffffffffffffffffffffffffffffffffffffffffffffffffffff0382111562000499576200049862000584565b5b828201905092915050565b6000620004b182620004b8565b9050919050565b600073ffffffffffffffffffffffffffffffffffffffff82169050919050565b6000819050919050565b60005b8381101562000502578082015181840152602081019050620004e5565b8381111562000512576000848401525b50505050565b600060028204905060018216806200053157607f821691505b60208210811415620005485762000547620005b3565b5b50919050565b620005598262000611565b810181811067ffffffffffffffff821117156200057b576200057a620005e2565b5b80604052505050565b7f4e487b7100000000000000000000000000000000000000000000000000000000600052601160045260246000fd5b7f4e487b7100000000000000000000000000000000000000000000000000000000600052602260045260246000fd5b7f4e487b7100000000000000000000000000000000000000000000000000000000600052604160045260246000fd5b6000601f19601f8301169050919050565b6200062d81620004a4565b81146200063957600080fd5b50565b6200064781620004d8565b81146200065357600080fd5b50565b61429380620006666000396000f3fe608060405234801561001057600080fd5b50600436106102065760003560e01c80636352211e1161011a578063c0f1653d116100ad578063eb8d24441161007c578063eb8d2444146105d9578063ee040645146105f7578063f0f8994114610613578063f2fde38b14610631578063f62f3c111461064d57610206565b8063c0f1653d14610551578063c87b56dd1461056f578063e985e9c51461059f578063e9866550146105cf57610206565b80638da5cb5b116100e95780638da5cb5b146104dd57806395d89b41146104fb578063a22cb46514610519578063b88d4fde1461053557610206565b80636352211e1461045557806370a0823114610485578063715018a6146104b5578063818aa553146104bf57610206565b806329a58d481161019d5780633a66cc671161016c5780633a66cc67146103b35780634018264d146103cf57806342842e0e146103ed5780634f6ccce71461040957806355f804b31461043957610206565b806329a58d48146103175780632f2eda31146103355780632f745c591461035357806333c41a901461038357610206565b8063095ea7b3116101d9578063095ea7b3146102a557806310969523146102c157806318160ddd146102dd57806323b872dd146102fb57610206565b8063018a2c371461020b57806301ffc9a71461022757806306fdde0314610257578063081812fc14610275575b600080fd5b61022560048036038101906102209190612ef2565b61066b565b005b610241600480360381019061023c9190612e5f565b6106f1565b60405161024e919061341d565b60405180910390f35b61025f61076b565b60405161026c9190613438565b60405180910390f35b61028f600480360381019061028a9190612ef2565b6107fd565b60405161029c91906133b6565b60405180910390f35b6102bf60048036038101906102ba9190612e23565b610882565b005b6102db60048036038101906102d69190612eb1565b61099a565b005b6102e5610a30565b6040516102f2919061377a565b60405180910390f35b61031560048036038101906103109190612d1d565b610a3d565b005b61031f610a9d565b60405161032c919061377a565b60405180910390f35b61033d610aa3565b60405161034a919061377a565b60405180910390f35b61036d60048036038101906103689190612e23565b610aa9565b60405161037a919061377a565b60405180910390f35b61039d60048036038101906103989190612ef2565b610b4e565b6040516103aa919061341d565b60405180910390f35b6103cd60048036038101906103c89190612ef2565b610ba4565b005b6103d7610c2a565b6040516103e4919061377a565b60405180910390f35b61040760048036038101906104029190612d1d565b610c30565b005b610423600480360381019061041e9190612ef2565b610c50565b604051610430919061377a565b60405180910390f35b610453600480360381019061044e9190612eb1565b610ce7565b005b61046f600480360381019061046a9190612ef2565b610d7d565b60405161047c91906133b6565b60405180910390f35b61049f600480360381019061049a9190612c8f565b610e2f565b6040516104ac919061377a565b60405180910390f35b6104bd610ee7565b005b6104c7610f6f565b6040516104d4919061377a565b60405180910390f35b6104e5610f75565b6040516104f291906133b6565b60405180910390f35b610503610f9f565b6040516105109190613438565b60405180910390f35b610533600480360381019061052e9190612de7565b611031565b005b61054f600480360381019061054a9190612d6c565b6111b2565b005b610559611214565b6040516105669190613438565b60405180910390f35b61058960048036038101906105849190612ef2565b6112a2565b6040516105969190613438565b60405180910390f35b6105b960048036038101906105b49190612ce1565b611349565b6040516105c6919061341d565b60405180910390f35b6105d76113dd565b005b6105e1611538565b6040516105ee919061341d565b60405180910390f35b610611600480360381019061060c9190612f1b565b61154b565b005b61061b6117ce565b604051610628919061377a565b60405180910390f35b61064b60048036038101906106469190612c8f565b6117d4565b005b6106556118cc565b604051610662919061377a565b60405180910390f35b6106736118d2565b73ffffffffffffffffffffffffffffffffffffffff16610691610f75565b73ffffffffffffffffffffffffffffffffffffffff16146106e7576040517f08c379a00000000000000000000000000000000000000000000000000000000081526004016106de9061365a565b60405180910390fd5b8060148190555050565b60007f780e9d63000000000000000000000000000000000000000000000000000000007bffffffffffffffffffffffffffffffffffffffffffffffffffffffff1916827bffffffffffffffffffffffffffffffffffffffffffffffffffffffff191614806107645750610763826118da565b5b9050919050565b60606000805461077a906139d0565b80601f01602080910402602001604051908101604052809291908181526020018280546107a6906139d0565b80156107f35780601f106107c8576101008083540402835291602001916107f3565b820191906000526020600020905b8154815290600101906020018083116107d657829003601f168201915b5050505050905090565b6000610808826119bc565b610847576040517f08c379a000000000000000000000000000000000000000000000000000000000815260040161083e9061363a565b60405180910390fd5b6004600083815260200190815260200160002060009054906101000a900473ffffffffffffffffffffffffffffffffffffffff169050919050565b600061088d82610d7d565b90508073ffffffffffffffffffffffffffffffffffffffff168373ffffffffffffffffffffffffffffffffffffffff1614156108fe576040517f08c379a00000000000000000000000000000000000000000000000000000000081526004016108f5906136da565b60405180910390fd5b8073ffffffffffffffffffffffffffffffffffffffff1661091d6118d2565b73ffffffffffffffffffffffffffffffffffffffff16148061094c575061094b816109466118d2565b611349565b5b61098b576040517f08c379a0000000000000000000000000000000000000000000000000000000008152600401610982906135ba565b60405180910390fd5b6109958383611a28565b505050565b6109a26118d2565b73ffffffffffffffffffffffffffffffffffffffff166109c0610f75565b73ffffffffffffffffffffffffffffffffffffffff1614610a16576040517f08c379a0000000000000000000000000000000000000000000000000000000008152600401610a0d9061365a565b60405180910390fd5b80600d9080519060200190610a2c929190612a9e565b5050565b6000600880549050905090565b610a4e610a486118d2565b82611ae1565b610a8d576040517f08c379a0000000000000000000000000000000000000000000000000000000008152600401610a849061371a565b60405180910390fd5b610a98838383611bbf565b505050565b600f5481565b60105481565b6000610ab483610e2f565b8210610af5576040517f08c379a0000000000000000000000000000000000000000000000000000000008152600401610aec9061345a565b60405180910390fd5b600660008473ffffffffffffffffffffffffffffffffffffffff1673ffffffffffffffffffffffffffffffffffffffff168152602001908152602001600020600083815260200190815260200160002054905092915050565b60006011548210610b94576040517f08c379a0000000000000000000000000000000000000000000000000000000008152600401610b8b906136ba565b60405180910390fd5b610b9d826119bc565b9050919050565b610bac6118d2565b73ffffffffffffffffffffffffffffffffffffffff16610bca610f75565b73ffffffffffffffffffffffffffffffffffffffff1614610c20576040517f08c379a0000000000000000000000000000000000000000000000000000000008152600401610c179061365a565b60405180910390fd5b8060138190555050565b60115481565b610c4b838383604051806020016040528060008152506111b2565b505050565b6000610c5a610a30565b8210610c9b576040517f08c379a0000000000000000000000000000000000000000000000000000000008152600401610c929061373a565b60405180910390fd5b60088281548110610cd5577f4e487b7100000000000000000000000000000000000000000000000000000000600052603260045260246000fd5b90600052602060002001549050919050565b610cef6118d2565b73ffffffffffffffffffffffffffffffffffffffff16610d0d610f75565b73ffffffffffffffffffffffffffffffffffffffff1614610d63576040517f08c379a0000000000000000000000000000000000000000000000000000000008152600401610d5a9061365a565b60405180910390fd5b8060159080519060200190610d79929190612a9e565b5050565b6000806002600084815260200190815260200160002060009054906101000a900473ffffffffffffffffffffffffffffffffffffffff169050600073ffffffffffffffffffffffffffffffffffffffff168173ffffffffffffffffffffffffffffffffffffffff161415610e26576040517f08c379a0000000000000000000000000000000000000000000000000000000008152600401610e1d906135fa565b60405180910390fd5b80915050919050565b60008073ffffffffffffffffffffffffffffffffffffffff168273ffffffffffffffffffffffffffffffffffffffff161415610ea0576040517f08c379a0000000000000000000000000000000000000000000000000000000008152600401610e97906135da565b60405180910390fd5b600360008373ffffffffffffffffffffffffffffffffffffffff1673ffffffffffffffffffffffffffffffffffffffff168152602001908152602001600020549050919050565b610eef6118d2565b73ffffffffffffffffffffffffffffffffffffffff16610f0d610f75565b73ffffffffffffffffffffffffffffffffffffffff1614610f63576040517f08c379a0000000000000000000000000000000000000000000000000000000008152600401610f5a9061365a565b60405180910390fd5b610f6d6000611e1b565b565b60135481565b6000600a60009054906101000a900473ffffffffffffffffffffffffffffffffffffffff16905090565b606060018054610fae906139d0565b80601f0160208091040260200160405190810160405280929190818152602001828054610fda906139d0565b80156110275780601f10610ffc57610100808354040283529160200191611027565b820191906000526020600020905b81548152906001019060200180831161100a57829003601f168201915b5050505050905090565b6110396118d2565b73ffffffffffffffffffffffffffffffffffffffff168273ffffffffffffffffffffffffffffffffffffffff1614156110a7576040517f08c379a000000000000000000000000000000000000000000000000000000000815260040161109e9061353a565b60405180910390fd5b80600560006110b46118d2565b73ffffffffffffffffffffffffffffffffffffffff1673ffffffffffffffffffffffffffffffffffffffff16815260200190815260200160002060008473ffffffffffffffffffffffffffffffffffffffff1673ffffffffffffffffffffffffffffffffffffffff16815260200190815260200160002060006101000a81548160ff0219169083151502179055508173ffffffffffffffffffffffffffffffffffffffff166111616118d2565b73ffffffffffffffffffffffffffffffffffffffff167f17307eab39ab6107e8899845ad3d59bd9653f200f220920489ca2b5937696c31836040516111a6919061341d565b60405180910390a35050565b6111c36111bd6118d2565b83611ae1565b611202576040517f08c379a00000000000000000000000000000000000000000000000000000000081526004016111f99061371a565b60405180910390fd5b61120e84848484611ee1565b50505050565b600d8054611221906139d0565b80601f016020809104026020016040519081016040528092919081815260200182805461124d906139d0565b801561129a5780601f1061126f5761010080835404028352916020019161129a565b820191906000526020600020905b81548152906001019060200180831161127d57829003601f168201915b505050505081565b60606112ad826119bc565b6112ec576040517f08c379a00000000000000000000000000000000000000000000000000000000081526004016112e39061369a565b60405180910390fd5b60006112f6611f3d565b905060008151116113165760405180602001604052806000815250611341565b8061132084611fcf565b604051602001611331929190613392565b6040516020818303038152906040525b915050919050565b6000600560008473ffffffffffffffffffffffffffffffffffffffff1673ffffffffffffffffffffffffffffffffffffffff16815260200190815260200160002060008373ffffffffffffffffffffffffffffffffffffffff1673ffffffffffffffffffffffffffffffffffffffff16815260200190815260200160002060009054906101000a900460ff16905092915050565b6000600f5414611422576040517f08c379a00000000000000000000000000000000000000000000000000000000081526004016114199061359a565b60405180910390fd5b60006010541415611468576040517f08c379a000000000000000000000000000000000000000000000000000000000815260040161145f906136fa565b60405180910390fd5b60145442101580611481575060115461147f610a30565b145b6114c0576040517f08c379a00000000000000000000000000000000000000000000000000000000081526004016114b79061355a565b60405180910390fd5b6011546010544060001c6114d49190613a7c565b600f8190555060ff601054436114ea91906138e6565b11156115155760115460014361150091906138e6565b4060001c61150e9190613a7c565b600f819055505b6000600f541415611536576001600f5461152f919061385f565b600f819055505b565b600e60009054906101000a900460ff1681565b6115536118d2565b73ffffffffffffffffffffffffffffffffffffffff16611571610f75565b73ffffffffffffffffffffffffffffffffffffffff16146115c7576040517f08c379a00000000000000000000000000000000000000000000000000000000081526004016115be9061365a565b60405180910390fd5b60001515600c600084815260200190815260200160002060009054906101000a900460ff1615151461162e576040517f08c379a00000000000000000000000000000000000000000000000000000000081526004016116259061375a565b60405180910390fd5b60115460125410611674576040517f08c379a000000000000000000000000000000000000000000000000000000000815260040161166b906134fa565b60405180910390fd5b8073ffffffffffffffffffffffffffffffffffffffff16600b60009054906101000a900473ffffffffffffffffffffffffffffffffffffffff1673ffffffffffffffffffffffffffffffffffffffff16636352211e846040518263ffffffff1660e01b81526004016116e6919061377a565b60206040518083038186803b1580156116fe57600080fd5b505afa158015611712573d6000803e3d6000fd5b505050506040513d601f19601f820116820180604052508101906117369190612cb8565b73ffffffffffffffffffffffffffffffffffffffff161461178c576040517f08c379a0000000000000000000000000000000000000000000000000000000008152600401611783906134da565b60405180910390fd5b611796818361217c565b6001600c600084815260200190815260200160002060006101000a81548160ff0219169083151502179055506117ca61219a565b5050565b60125481565b6117dc6118d2565b73ffffffffffffffffffffffffffffffffffffffff166117fa610f75565b73ffffffffffffffffffffffffffffffffffffffff1614611850576040517f08c379a00000000000000000000000000000000000000000000000000000000081526004016118479061365a565b60405180910390fd5b600073ffffffffffffffffffffffffffffffffffffffff168173ffffffffffffffffffffffffffffffffffffffff1614156118c0576040517f08c379a00000000000000000000000000000000000000000000000000000000081526004016118b79061349a565b60405180910390fd5b6118c981611e1b565b50565b60145481565b600033905090565b60007f80ac58cd000000000000000000000000000000000000000000000000000000007bffffffffffffffffffffffffffffffffffffffffffffffffffffffff1916827bffffffffffffffffffffffffffffffffffffffffffffffffffffffff191614806119a557507f5b5e139f000000000000000000000000000000000000000000000000000000007bffffffffffffffffffffffffffffffffffffffffffffffffffffffff1916827bffffffffffffffffffffffffffffffffffffffffffffffffffffffff1916145b806119b557506119b4826121d0565b5b9050919050565b60008073ffffffffffffffffffffffffffffffffffffffff166002600084815260200190815260200160002060009054906101000a900473ffffffffffffffffffffffffffffffffffffffff1673ffffffffffffffffffffffffffffffffffffffff1614159050919050565b816004600083815260200190815260200160002060006101000a81548173ffffffffffffffffffffffffffffffffffffffff021916908373ffffffffffffffffffffffffffffffffffffffff160217905550808273ffffffffffffffffffffffffffffffffffffffff16611a9b83610d7d565b73ffffffffffffffffffffffffffffffffffffffff167f8c5be1e5ebec7d5bd14f71427d1e84f3dd0314c0f7b2291e5b200ac8c7c3b92560405160405180910390a45050565b6000611aec826119bc565b611b2b576040517f08c379a0000000000000000000000000000000000000000000000000000000008152600401611b229061357a565b60405180910390fd5b6000611b3683610d7d565b90508073ffffffffffffffffffffffffffffffffffffffff168473ffffffffffffffffffffffffffffffffffffffff161480611ba557508373ffffffffffffffffffffffffffffffffffffffff16611b8d846107fd565b73ffffffffffffffffffffffffffffffffffffffff16145b80611bb65750611bb58185611349565b5b91505092915050565b8273ffffffffffffffffffffffffffffffffffffffff16611bdf82610d7d565b73ffffffffffffffffffffffffffffffffffffffff1614611c35576040517f08c379a0000000000000000000000000000000000000000000000000000000008152600401611c2c9061367a565b60405180910390fd5b600073ffffffffffffffffffffffffffffffffffffffff168273ffffffffffffffffffffffffffffffffffffffff161415611ca5576040517f08c379a0000000000000000000000000000000000000000000000000000000008152600401611c9c9061351a565b60405180910390fd5b611cb083838361223a565b611cbb600082611a28565b6001600360008573ffffffffffffffffffffffffffffffffffffffff1673ffffffffffffffffffffffffffffffffffffffff1681526020019081526020016000206000828254611d0b91906138e6565b925050819055506001600360008473ffffffffffffffffffffffffffffffffffffffff1673ffffffffffffffffffffffffffffffffffffffff1681526020019081526020016000206000828254611d62919061385f565b92505081905550816002600083815260200190815260200160002060006101000a81548173ffffffffffffffffffffffffffffffffffffffff021916908373ffffffffffffffffffffffffffffffffffffffff160217905550808273ffffffffffffffffffffffffffffffffffffffff168473ffffffffffffffffffffffffffffffffffffffff167fddf252ad1be2c89b69c2b068fc378daa952ba7f163c4a11628f55a4df523b3ef60405160405180910390a4505050565b6000600a60009054906101000a900473ffffffffffffffffffffffffffffffffffffffff16905081600a60006101000a81548173ffffffffffffffffffffffffffffffffffffffff021916908373ffffffffffffffffffffffffffffffffffffffff1602179055508173ffffffffffffffffffffffffffffffffffffffff168173ffffffffffffffffffffffffffffffffffffffff167f8be0079c531659141344cd1fd0a4f28419497f9722a3daafe3b4186f6b6457e060405160405180910390a35050565b611eec848484611bbf565b611ef88484848461234e565b611f37576040517f08c379a0000000000000000000000000000000000000000000000000000000008152600401611f2e9061347a565b60405180910390fd5b50505050565b606060158054611f4c906139d0565b80601f0160208091040260200160405190810160405280929190818152602001828054611f78906139d0565b8015611fc55780601f10611f9a57610100808354040283529160200191611fc5565b820191906000526020600020905b815481529060010190602001808311611fa857829003601f168201915b5050505050905090565b60606000821415612017576040518060400160405280600181526020017f30000000000000000000000000000000000000000000000000000000000000008152509050612177565b600082905060005b6000821461204957808061203290613a33565b915050600a8261204291906138b5565b915061201f565b60008167ffffffffffffffff81111561208b577f4e487b7100000000000000000000000000000000000000000000000000000000600052604160045260246000fd5b6040519080825280601f01601f1916602001820160405280156120bd5781602001600182028036833780820191505090505b5090505b60008514612170576001826120d691906138e6565b9150600a856120e59190613a7c565b60306120f1919061385f565b60f81b81838151811061212d577f4e487b7100000000000000000000000000000000000000000000000000000000600052603260045260246000fd5b60200101907effffffffffffffffffffffffffffffffffffffffffffffffffffffffffffff1916908160001a905350600a8561216991906138b5565b94506120c1565b8093505050505b919050565b6121968282604051806020016040528060008152506124e5565b5050565b60006010541480156121c157506011546121b2610a30565b14806121c057506013544210155b5b156121ce57436010819055505b565b60007f01ffc9a7000000000000000000000000000000000000000000000000000000007bffffffffffffffffffffffffffffffffffffffffffffffffffffffff1916827bffffffffffffffffffffffffffffffffffffffffffffffffffffffff1916149050919050565b612245838383612540565b600073ffffffffffffffffffffffffffffffffffffffff168373ffffffffffffffffffffffffffffffffffffffff1614156122885761228381612545565b6122c7565b8173ffffffffffffffffffffffffffffffffffffffff168373ffffffffffffffffffffffffffffffffffffffff16146122c6576122c5838261258e565b5b5b600073ffffffffffffffffffffffffffffffffffffffff168273ffffffffffffffffffffffffffffffffffffffff16141561230a57612305816126fb565b612349565b8273ffffffffffffffffffffffffffffffffffffffff168273ffffffffffffffffffffffffffffffffffffffff161461234857612347828261283e565b5b5b505050565b600061236f8473ffffffffffffffffffffffffffffffffffffffff166128bd565b156124d8578373ffffffffffffffffffffffffffffffffffffffff1663150b7a026123986118d2565b8786866040518563ffffffff1660e01b81526004016123ba94939291906133d1565b602060405180830381600087803b1580156123d457600080fd5b505af192505050801561240557506040513d601f19601f820116820180604052508101906124029190612e88565b60015b612488573d8060008114612435576040519150601f19603f3d011682016040523d82523d6000602084013e61243a565b606091505b50600081511415612480576040517f08c379a00000000000000000000000000000000000000000000000000000000081526004016124779061347a565b60405180910390fd5b805181602001fd5b63150b7a0260e01b7bffffffffffffffffffffffffffffffffffffffffffffffffffffffff1916817bffffffffffffffffffffffffffffffffffffffffffffffffffffffff1916149150506124dd565b600190505b949350505050565b6124ef83836128d0565b6124fc600084848461234e565b61253b576040517f08c379a00000000000000000000000000000000000000000000000000000000081526004016125329061347a565b60405180910390fd5b505050565b505050565b6008805490506009600083815260200190815260200160002081905550600881908060018154018082558091505060019003906000526020600020016000909190919091505550565b6000600161259b84610e2f565b6125a591906138e6565b905060006007600084815260200190815260200160002054905081811461268a576000600660008673ffffffffffffffffffffffffffffffffffffffff1673ffffffffffffffffffffffffffffffffffffffff168152602001908152602001600020600084815260200190815260200160002054905080600660008773ffffffffffffffffffffffffffffffffffffffff1673ffffffffffffffffffffffffffffffffffffffff168152602001908152602001600020600084815260200190815260200160002081905550816007600083815260200190815260200160002081905550505b6007600084815260200190815260200160002060009055600660008573ffffffffffffffffffffffffffffffffffffffff1673ffffffffffffffffffffffffffffffffffffffff16815260200190815260200160002060008381526020019081526020016000206000905550505050565b6000600160088054905061270f91906138e6565b9050600060096000848152602001908152602001600020549050600060088381548110612765577f4e487b7100000000000000000000000000000000000000000000000000000000600052603260045260246000fd5b9060005260206000200154905080600883815481106127ad577f4e487b7100000000000000000000000000000000000000000000000000000000600052603260045260246000fd5b906000526020600020018190555081600960008381526020019081526020016000208190555060096000858152602001908152602001600020600090556008805480612822577f4e487b7100000000000000000000000000000000000000000000000000000000600052603160045260246000fd5b6001900381819060005260206000200160009055905550505050565b600061284983610e2f565b905081600660008573ffffffffffffffffffffffffffffffffffffffff1673ffffffffffffffffffffffffffffffffffffffff168152602001908152602001600020600083815260200190815260200160002081905550806007600084815260200190815260200160002081905550505050565b600080823b905060008111915050919050565b600073ffffffffffffffffffffffffffffffffffffffff168273ffffffffffffffffffffffffffffffffffffffff161415612940576040517f08c379a00000000000000000000000000000000000000000000000000000000081526004016129379061361a565b60405180910390fd5b612949816119bc565b15612989576040517f08c379a0000000000000000000000000000000000000000000000000000000008152600401612980906134ba565b60405180910390fd5b6129956000838361223a565b6001600360008473ffffffffffffffffffffffffffffffffffffffff1673ffffffffffffffffffffffffffffffffffffffff16815260200190815260200160002060008282546129e5919061385f565b92505081905550816002600083815260200190815260200160002060006101000a81548173ffffffffffffffffffffffffffffffffffffffff021916908373ffffffffffffffffffffffffffffffffffffffff160217905550808273ffffffffffffffffffffffffffffffffffffffff16600073ffffffffffffffffffffffffffffffffffffffff167fddf252ad1be2c89b69c2b068fc378daa952ba7f163c4a11628f55a4df523b3ef60405160405180910390a45050565b828054612aaa906139d0565b90600052602060002090601f016020900481019282612acc5760008555612b13565b82601f10612ae557805160ff1916838001178555612b13565b82800160010185558215612b13579182015b82811115612b12578251825591602001919060010190612af7565b5b509050612b209190612b24565b5090565b5b80821115612b3d576000816000905550600101612b25565b5090565b6000612b54612b4f846137ba565b613795565b905082815260208101848484011115612b6c57600080fd5b612b7784828561398e565b509392505050565b6000612b92612b8d846137eb565b613795565b905082815260208101848484011115612baa57600080fd5b612bb584828561398e565b509392505050565b600081359050612bcc81614201565b92915050565b600081519050612be181614201565b92915050565b600081359050612bf681614218565b92915050565b600081359050612c0b8161422f565b92915050565b600081519050612c208161422f565b92915050565b600082601f830112612c3757600080fd5b8135612c47848260208601612b41565b91505092915050565b600082601f830112612c6157600080fd5b8135612c71848260208601612b7f565b91505092915050565b600081359050612c8981614246565b92915050565b600060208284031215612ca157600080fd5b6000612caf84828501612bbd565b91505092915050565b600060208284031215612cca57600080fd5b6000612cd884828501612bd2565b91505092915050565b60008060408385031215612cf457600080fd5b6000612d0285828601612bbd565b9250506020612d1385828601612bbd565b9150509250929050565b600080600060608486031215612d3257600080fd5b6000612d4086828701612bbd565b9350506020612d5186828701612bbd565b9250506040612d6286828701612c7a565b9150509250925092565b60008060008060808587031215612d8257600080fd5b6000612d9087828801612bbd565b9450506020612da187828801612bbd565b9350506040612db287828801612c7a565b925050606085013567ffffffffffffffff811115612dcf57600080fd5b612ddb87828801612c26565b91505092959194509250565b60008060408385031215612dfa57600080fd5b6000612e0885828601612bbd565b9250506020612e1985828601612be7565b9150509250929050565b60008060408385031215612e3657600080fd5b6000612e4485828601612bbd565b9250506020612e5585828601612c7a565b9150509250929050565b600060208284031215612e7157600080fd5b6000612e7f84828501612bfc565b91505092915050565b600060208284031215612e9a57600080fd5b6000612ea884828501612c11565b91505092915050565b600060208284031215612ec357600080fd5b600082013567ffffffffffffffff811115612edd57600080fd5b612ee984828501612c50565b91505092915050565b600060208284031215612f0457600080fd5b6000612f1284828501612c7a565b91505092915050565b60008060408385031215612f2e57600080fd5b6000612f3c85828601612c7a565b9250506020612f4d85828601612bbd565b9150509250929050565b612f608161391a565b82525050565b612f6f8161392c565b82525050565b6000612f808261381c565b612f8a8185613832565b9350612f9a81856020860161399d565b612fa381613b69565b840191505092915050565b6000612fb982613827565b612fc38185613843565b9350612fd381856020860161399d565b612fdc81613b69565b840191505092915050565b6000612ff282613827565b612ffc8185613854565b935061300c81856020860161399d565b80840191505092915050565b6000613025602b83613843565b915061303082613b7a565b604082019050919050565b6000613048603283613843565b915061305382613bc9565b604082019050919050565b600061306b602683613843565b915061307682613c18565b604082019050919050565b600061308e601c83613843565b915061309982613c67565b602082019050919050565b60006130b1603583613843565b91506130bc82613c90565b604082019050919050565b60006130d4601083613843565b91506130df82613cdf565b602082019050919050565b60006130f7602483613843565b915061310282613d08565b604082019050919050565b600061311a601983613843565b915061312582613d57565b602082019050919050565b600061313d603983613843565b915061314882613d80565b604082019050919050565b6000613160602c83613843565b915061316b82613dcf565b604082019050919050565b6000613183601d83613843565b915061318e82613e1e565b602082019050919050565b60006131a6603883613843565b91506131b182613e47565b604082019050919050565b60006131c9602a83613843565b91506131d482613e96565b604082019050919050565b60006131ec602983613843565b91506131f782613ee5565b604082019050919050565b600061320f602083613843565b915061321a82613f34565b602082019050919050565b6000613232602c83613843565b915061323d82613f5d565b604082019050919050565b6000613255602083613843565b915061326082613fac565b602082019050919050565b6000613278602983613843565b915061328382613fd5565b604082019050919050565b600061329b602f83613843565b91506132a682614024565b604082019050919050565b60006132be602183613843565b91506132c982614073565b604082019050919050565b60006132e1602183613843565b91506132ec826140c2565b604082019050919050565b6000613304602083613843565b915061330f82614111565b602082019050919050565b6000613327603183613843565b91506133328261413a565b604082019050919050565b600061334a602c83613843565b915061335582614189565b604082019050919050565b600061336d601783613843565b9150613378826141d8565b602082019050919050565b61338c81613984565b82525050565b600061339e8285612fe7565b91506133aa8284612fe7565b91508190509392505050565b60006020820190506133cb6000830184612f57565b92915050565b60006080820190506133e66000830187612f57565b6133f36020830186612f57565b6134006040830185613383565b81810360608301526134128184612f75565b905095945050505050565b60006020820190506134326000830184612f66565b92915050565b600060208201905081810360008301526134528184612fae565b905092915050565b6000602082019050818103600083015261347381613018565b9050919050565b600060208201905081810360008301526134938161303b565b9050919050565b600060208201905081810360008301526134b38161305e565b9050919050565b600060208201905081810360008301526134d381613081565b9050919050565b600060208201905081810360008301526134f3816130a4565b9050919050565b60006020820190508181036000830152613513816130c7565b9050919050565b60006020820190508181036000830152613533816130ea565b9050919050565b600060208201905081810360008301526135538161310d565b9050919050565b6000602082019050818103600083015261357381613130565b9050919050565b6000602082019050818103600083015261359381613153565b9050919050565b600060208201905081810360008301526135b381613176565b9050919050565b600060208201905081810360008301526135d381613199565b9050919050565b600060208201905081810360008301526135f3816131bc565b9050919050565b60006020820190508181036000830152613613816131df565b9050919050565b6000602082019050818103600083015261363381613202565b9050919050565b6000602082019050818103600083015261365381613225565b9050919050565b6000602082019050818103600083015261367381613248565b9050919050565b600060208201905081810360008301526136938161326b565b9050919050565b600060208201905081810360008301526136b38161328e565b9050919050565b600060208201905081810360008301526136d3816132b1565b9050919050565b600060208201905081810360008301526136f3816132d4565b9050919050565b60006020820190508181036000830152613713816132f7565b9050919050565b600060208201905081810360008301526137338161331a565b9050919050565b600060208201905081810360008301526137538161333d565b9050919050565b6000602082019050818103600083015261377381613360565b9050919050565b600060208201905061378f6000830184613383565b92915050565b600061379f6137b0565b90506137ab8282613a02565b919050565b6000604051905090565b600067ffffffffffffffff8211156137d5576137d4613b3a565b5b6137de82613b69565b9050602081019050919050565b600067ffffffffffffffff82111561380657613805613b3a565b5b61380f82613b69565b9050602081019050919050565b600081519050919050565b600081519050919050565b600082825260208201905092915050565b600082825260208201905092915050565b600081905092915050565b600061386a82613984565b915061387583613984565b9250827fffffffffffffffffffffffffffffffffffffffffffffffffffffffffffffffff038211156138aa576138a9613aad565b5b828201905092915050565b60006138c082613984565b91506138cb83613984565b9250826138db576138da613adc565b5b828204905092915050565b60006138f182613984565b91506138fc83613984565b92508282101561390f5761390e613aad565b5b828203905092915050565b600061392582613964565b9050919050565b60008115159050919050565b60007fffffffff0000000000000000000000000000000000000000000000000000000082169050919050565b600073ffffffffffffffffffffffffffffffffffffffff82169050919050565b6000819050919050565b82818337600083830152505050565b60005b838110156139bb5780820151818401526020810190506139a0565b838111156139ca576000848401525b50505050565b600060028204905060018216806139e857607f821691505b602082108114156139fc576139fb613b0b565b5b50919050565b613a0b82613b69565b810181811067ffffffffffffffff82111715613a2a57613a29613b3a565b5b80604052505050565b6000613a3e82613984565b91507fffffffffffffffffffffffffffffffffffffffffffffffffffffffffffffffff821415613a7157613a70613aad565b5b600182019050919050565b6000613a8782613984565b9150613a9283613984565b925082613aa257613aa1613adc565b5b828206905092915050565b7f4e487b7100000000000000000000000000000000000000000000000000000000600052601160045260246000fd5b7f4e487b7100000000000000000000000000000000000000000000000000000000600052601260045260246000fd5b7f4e487b7100000000000000000000000000000000000000000000000000000000600052602260045260246000fd5b7f4e487b7100000000000000000000000000000000000000000000000000000000600052604160045260246000fd5b6000601f19601f8301169050919050565b7f455243373231456e756d657261626c653a206f776e657220696e646578206f7560008201527f74206f6620626f756e6473000000000000000000000000000000000000000000602082015250565b7f4552433732313a207472616e7366657220746f206e6f6e20455243373231526560008201527f63656976657220696d706c656d656e7465720000000000000000000000000000602082015250565b7f4f776e61626c653a206e6577206f776e657220697320746865207a65726f206160008201527f6464726573730000000000000000000000000000000000000000000000000000602082015250565b7f4552433732313a20746f6b656e20616c7265616479206d696e74656400000000600082015250565b7f416c6c206d696e7473206d75737420676f20746f207468652063757272656e7460008201527f206f776e6572206f6620616e2046624176617461720000000000000000000000602082015250565b7f416c6c206769667473206d696e74656400000000000000000000000000000000600082015250565b7f4552433732313a207472616e7366657220746f20746865207a65726f2061646460008201527f7265737300000000000000000000000000000000000000000000000000000000602082015250565b7f4552433732313a20617070726f766520746f2063616c6c657200000000000000600082015250565b7f4d757374206265206f6e206f72206166746572207468652072657665616c207460008201527f696d6520746f20736574207374617274696e6720696e64657800000000000000602082015250565b7f4552433732313a206f70657261746f7220717565727920666f72206e6f6e657860008201527f697374656e7420746f6b656e0000000000000000000000000000000000000000602082015250565b7f5374617274696e6720696e64657820697320616c726561647920736574000000600082015250565b7f4552433732313a20617070726f76652063616c6c6572206973206e6f74206f7760008201527f6e6572206e6f7220617070726f76656420666f7220616c6c0000000000000000602082015250565b7f4552433732313a2062616c616e636520717565727920666f7220746865207a6560008201527f726f206164647265737300000000000000000000000000000000000000000000602082015250565b7f4552433732313a206f776e657220717565727920666f72206e6f6e657869737460008201527f656e7420746f6b656e0000000000000000000000000000000000000000000000602082015250565b7f4552433732313a206d696e7420746f20746865207a65726f2061646472657373600082015250565b7f4552433732313a20617070726f76656420717565727920666f72206e6f6e657860008201527f697374656e7420746f6b656e0000000000000000000000000000000000000000602082015250565b7f4f776e61626c653a2063616c6c6572206973206e6f7420746865206f776e6572600082015250565b7f4552433732313a207472616e73666572206f6620746f6b656e2074686174206960008201527f73206e6f74206f776e0000000000000000000000000000000000000000000000602082015250565b7f4552433732314d657461646174613a2055524920717565727920666f72206e6f60008201527f6e6578697374656e7420746f6b656e0000000000000000000000000000000000602082015250565b7f746f6b656e4964206f75747369646520636f6c6c656374696f6e20626f756e6460008201527f7300000000000000000000000000000000000000000000000000000000000000602082015250565b7f4552433732313a20617070726f76616c20746f2063757272656e74206f776e6560008201527f7200000000000000000000000000000000000000000000000000000000000000602082015250565b7f5374617274696e6720696e64657820626c6f636b206d75737420626520736574600082015250565b7f4552433732313a207472616e736665722063616c6c6572206973206e6f74206f60008201527f776e6572206e6f7220617070726f766564000000000000000000000000000000602082015250565b7f455243373231456e756d657261626c653a20676c6f62616c20696e646578206f60008201527f7574206f6620626f756e64730000000000000000000000000000000000000000602082015250565b7f746f6b656e20697320616c7265616479206d696e746564000000000000000000600082015250565b61420a8161391a565b811461421557600080fd5b50565b6142218161392c565b811461422c57600080fd5b50565b61423881613938565b811461424357600080fd5b50565b61424f81613984565b811461425a57600080fd5b5056fea264697066735822122027b8455cdd38ed1e9165c4319d0f56a79ff73d6c6c63c943165fb3a769032c7564736f6c63430008040033",
  "immutableReferences": {},
  "source": "import \"@openzeppelin/contracts/access/Ownable.sol\";\nimport \"@openzeppelin/contracts/token/ERC721/IERC721.sol\";\nimport \"@openzeppelin/contracts/token/ERC721/extensions/ERC721Enumerable.sol\";\n\ncontract FbPumpkinsGift is ERC721Enumerable, Ownable {\n  IERC721 private FbPumpkins;\n\n  // const ____f =                                         \"/^\\\"\n  // const ____b =                      \"L L               /   \\               L L\"\n  // const ____a =                   \"__/|/|_             /  .  \\             _|\\|\\__\"\n  // const ____v =                  \"/_| [_[_\\           /     .-\\           /_]_] |_\\\"\n  // const ___a_ =                 \"/__\\  __`-\\_____    /    .    \\    _____/-`__  /__\\\"\n  // const ____t =                \"/___] /=@>  _   {>  /-.         \\  <}   _  <@=\\ [___\\\"\n  // const __a__ =               \"/____/     /` `--/  /      .      \\  \\--` `\\     \\____\\\"\n  // const ____r =              \"/____/  \\____/`-._> /               \\ <_.-`\\____/  \\____\\\"\n  // const ____s =             \"/____/    /__/      /-._     .   _.-  \\      \\__\\    \\____\\\"\n  // const ____g =            \"/____/    /__/      /         .         \\      \\__\\    \\____\\\"\n  // const ____i =           \"|____/_  _/__/      /          .          \\      \\__\\_  _\\____|\"\n  // const ___f_ =           \" \\__/_ ``_|_/      /      -._  .        _.-\\      \\_|_`` _\\___/\"\n  // const ___t_ =           \"   /__`-`__\\      <_         `-;        NBD_>      /__`-`__\\\"\n  // const ___s_ =                 \"`-`           `-._       ;       _.-`           `-`\"\n\n  mapping(uint256 => bool) private _is_minted;\n  string public giftProvenanceHash;\n  bool public saleIsActive = false;\n  uint256 public collectionStartingIndex;\n  uint256 public collectionStartingIndexBlock;\n  uint256 public maxGifts = 5000;\n  uint256 public mintedGifts = 0;\n  uint256 public setBlockTimestamp;\n  uint256 public revealTimestamp;\n  string private baseURI;\n\n  constructor(\n    string memory name,\n    string memory symbol,\n    uint256 saleStart,\n    address dependentContractAddress\n  ) ERC721(name, symbol) {\n    revealTimestamp = saleStart + (86400 * 7);\n    setBlockTimestamp = saleStart + (86400 * 6);\n    FbPumpkins = IERC721(dependentContractAddress);\n  }\n\n  function setRevealTimestamp(uint256 revealTimeStamp) public onlyOwner {\n    revealTimestamp = revealTimeStamp;\n  }\n\n  function setStartingBlockTimestamp(uint256 startingBlockTimestamp) public onlyOwner {\n    setBlockTimestamp = startingBlockTimestamp;\n  }\n\n  function setProvenanceHash(string memory provenanceHash) public onlyOwner {\n    giftProvenanceHash = provenanceHash;\n  }\n\n  function isMinted(uint256 tokenId) external view returns (bool) {\n    require(tokenId < maxGifts, \"tokenId outside collection bounds\");\n\n    return _exists(tokenId);\n  }\n\n  function _baseURI() internal view override returns (string memory) {\n    return baseURI;\n  }\n\n  function setBaseURI(string memory uri) public onlyOwner {\n    baseURI = uri;\n  }\n\n  function trySetStartingIndexBlock() private {\n    if (\n      collectionStartingIndexBlock == 0 &&\n      (totalSupply() == maxGifts || block.timestamp >= setBlockTimestamp)\n    ) {\n      collectionStartingIndexBlock = block.number;\n    }\n  }\n\n  function mintGift(uint256 giftIndex, address giftReceiver) onlyOwner public {\n    // https://bulksender.app/\n    require(_is_minted[giftIndex] == false, \"token is already minted\");\n    require(mintedGifts < maxGifts, \"All gifts minted\");\n    require(FbPumpkins.ownerOf(giftIndex) == giftReceiver, \"All mints must go to the current owner of an FbAvatar\");\n\n    _safeMint(giftReceiver, giftIndex);\n    _is_minted[giftIndex] = true;\n    trySetStartingIndexBlock();\n  }\n\n  function setStartingIndex() public {\n    require(collectionStartingIndex == 0, \"Starting index is already set\");\n    require(collectionStartingIndexBlock != 0, \"Starting index block must be set\");\n    require(\n      block.timestamp >= revealTimestamp || totalSupply() == maxGifts,\n      \"Must be on or after the reveal time to set starting index\"\n    );\n\n    collectionStartingIndex = uint256(blockhash(collectionStartingIndexBlock)) % maxGifts;\n\n    // Just a sanity case in the worst case if this function is called late (EVM only stores last 256 block hashes)\n    if ((block.number - collectionStartingIndexBlock) > 255) {\n      collectionStartingIndex = uint256(blockhash(block.number - 1)) % maxGifts;\n    }\n\n    // Prevent default sequence\n    if (collectionStartingIndex == 0) {\n      collectionStartingIndex = collectionStartingIndex + 1;\n    }\n  }\n}\n",
  "sourcePath": "/Users/robkelly/workspace/NFT_demo/contracts/AirdropGift.sol",
  "compiler": {
    "name": "solc",
    "version": "0.8.4+commit.c7e474f2.Emscripten.clang"
  },
  "schemaVersion": "3.4.3",
  "updatedAt": "2021-10-20T03:19:40.414Z",
  "devdoc": {
    "kind": "dev",
    "methods": {
      "approve(address,uint256)": {
        "details": "See {IERC721-approve}."
      },
      "balanceOf(address)": {
        "details": "See {IERC721-balanceOf}."
      },
      "getApproved(uint256)": {
        "details": "See {IERC721-getApproved}."
      },
      "isApprovedForAll(address,address)": {
        "details": "See {IERC721-isApprovedForAll}."
      },
      "name()": {
        "details": "See {IERC721Metadata-name}."
      },
      "owner()": {
        "details": "Returns the address of the current owner."
      },
      "ownerOf(uint256)": {
        "details": "See {IERC721-ownerOf}."
      },
      "renounceOwnership()": {
        "details": "Leaves the contract without owner. It will not be possible to call `onlyOwner` functions anymore. Can only be called by the current owner. NOTE: Renouncing ownership will leave the contract without an owner, thereby removing any functionality that is only available to the owner."
      },
      "safeTransferFrom(address,address,uint256)": {
        "details": "See {IERC721-safeTransferFrom}."
      },
      "safeTransferFrom(address,address,uint256,bytes)": {
        "details": "See {IERC721-safeTransferFrom}."
      },
      "setApprovalForAll(address,bool)": {
        "details": "See {IERC721-setApprovalForAll}."
      },
      "supportsInterface(bytes4)": {
        "details": "See {IERC165-supportsInterface}."
      },
      "symbol()": {
        "details": "See {IERC721Metadata-symbol}."
      },
      "tokenByIndex(uint256)": {
        "details": "See {IERC721Enumerable-tokenByIndex}."
      },
      "tokenOfOwnerByIndex(address,uint256)": {
        "details": "See {IERC721Enumerable-tokenOfOwnerByIndex}."
      },
      "tokenURI(uint256)": {
        "details": "See {IERC721Metadata-tokenURI}."
      },
      "totalSupply()": {
        "details": "See {IERC721Enumerable-totalSupply}."
      },
      "transferFrom(address,address,uint256)": {
        "details": "See {IERC721-transferFrom}."
      },
      "transferOwnership(address)": {
        "details": "Transfers ownership of the contract to a new account (`newOwner`). Can only be called by the current owner."
      }
    },
    "version": 1
  },
  "userdoc": {
    "kind": "user",
    "methods": {},
    "version": 1
  }
}